:020000040000FA
:08000000803102288731C62F70
:10001200003400340034003400340034013401343C
:10002200003400340134013401340134003400342A
:10003200013400340034013400340034003400341C
:10004200003401340134003401340034003401340A
:1000520001340034003400340134003400340134FB
:1000620000340034003401340034003400340034ED
:1000720000340034003400340134013401340134DA
:1000820000340034003400340034003400340034CE
:10009200003400340034013400340034F901FA0130
:1000A2007A08803AF80080307802031D5A286430BA
:1000B2007902031808002000981797120330813143
:1000C2006B218031FA300032890B642820009716A8
:1000D200023081316B2180312000971618120230D4
:1000E20081316B218031FA300032890B7528200072
:1000F2001816013081316B218031200018169812B8
:10010200013081316B218031FA300032890B86282F
:1001120020009816003081316B2180312000981622
:100122009813003081316B218031FA300032890B13
:10013200972820009817033081316B2180310130DC
:10014200F9070030FA3D5128F6000730F400740830
:10015200F00076088E314E268031A03EF5007508FB
:10016200F700770886008701010C2000031C181194
:10017200031818150130F4007408F7077708860091
:100182008701010C031C9811031898150130F40023
:100192007408F707770886008701010C031C971182
:1001A200031897150130F4007408F70777088600E2
:1001B2008701010C031C9710031897140130F400F7
:1001C2007408F707770886008701010C031C1710D3
:1001D200031817140130F4007408F7077708860033
:1001E2008701010C031C1813031818170130F400BF
:1001F2007408F707770886008701010C031C1712A1
:10020200031817160130F4007408F7070800F60007
:100212000730F4007408F00076088E314E268131E2
:10022200BC3EF5007508F700770886008701010CCF
:100232002000031C1811031818150130F40074086B
:10024200F707770886008701010C031C9811031831
:1002520098150130F4007408F707770886008701C3
:10026200010C031C9711031897150130F400740850
:10027200F707770886008701010C031C9710031803
:1002820097140130F4007408F70777088600870195
:10029200010C031C1710031817140130F400740822
:1002A200F707770886008701010C031C181303184F
:1002B20018170130F4007408F707770886008701E1
:1002C200010C031C1712031817160130F4007408EE
:1002D200F7070800F6000730F4007408F00076080B
:1002E2008E314E268131513EF5007508F7007708B0
:1002F20086008701010C2000031C18110318181531
:100302000130F4007408F707770886008701010CB2
:10031200031C9811031898150130F4007408F707AC
:10032200770886008701010C031C971103189715A3
:100332000130F4007408F707770886008701010C82
:10034200031C9710031897140130F4007408F70780
:10035200770886008701010C031C17100318171475
:100362000130F4007408F707770886008701010C52
:10037200031C1813031818170130F4007408F70748
:10038200770886008701010C031C17120318171641
:100392000130F4007408F7070800FA007A08F60042
:1003A200F7017608F0007708F1000730F20000301C
:1003B200F3008E31752681311E30F8002330F900AA
:1003C20070087807FB007108793DFC007B08860005
:1003D2007C088700010C2000031C18110318181553
:1003E2000130FB070030FC3D7B0886007C0887005B
:1003F200010C031C9811031898150130FB070030FB
:10040200FC3D7B0886007C088700010C031C9711C9
:10041200031897150130FB070030FC3D7B0886006E
:100422007C088700010C031C9710031897140130F5
:10043200FB070030FC3D7B0886007C088700010C2E
:10044200031C1710031817140130FB070030FC3D82
:100452007B0886007C088700010C031C1813031814
:1004620018170130FB070030FC3D7B0886007C0832
:100472008700010C031C1712031817160130FB0723
:100482000030FC3D0800FA007A08F600F701760811
:10049200F0007708F1000730F2000030F3008E31EF
:1004A200752682318730F8002330F900700878070A
:1004B200FB007108793DFC007B0886007C08870000
:1004C200010C2000031C1811031818150130FB073A
:1004D2000030FC3D7B0886007C088700010C031C71
:1004E2009811031898150130FB070030FC3D7B087A
:1004F20086007C088700010C031C971103189715CE
:100502000130FB070030FC3D7B0886007C08870039
:10051200010C031C9710031897140130FB070030DD
:10052200FC3D7B0886007C088700010C031C171029
:10053200031817140130FB070030FC3D7B088600CE
:100542007C088700010C031C1813031818170130CC
:10055200FB070030FC3D7B0886007C088700010C0D
:10056200031C1712031817160130FB070030FC3D5D
:100572000800F6000730F4007408F00076088E31A7
:100582004E268231203EF5007508F7007708860076
:10059200013087000109F400F40DF40D2000180861
:1005A2007406FB39740698000130F4007408F707EA
:1005B20077088600013087000109F400F40DF40D7C
:1005C200F40D18087406F739740698000130F40027
:1005D2007408F70777088600013087000109F400E4
:1005E200F40DF40DF40D17087406F739740697002C
:1005F2000130F4007408F70777088600013087009D
:100602000109F400F40D17087406FD397406970009
:100612000130F4007408F70777088600013087007C
:100622000109F40017087406FE39740697000130B8
:10063200F4007408F7077708860001308700010983
:10064200F400F40EF40DF40D18087406BF397406A4
:1006520098000130F4007408F7077708860001302B
:1006620087000109F400F40E17087406EF397406C6
:1006720097000130F4007408F70708002000A40175
:10068200A501A201A301A001A1012108803AFD0058
:1006920080307D02031D4F2B033020020318C82B2C
:1006A200200016149614161596154130FD00EE30F2
:1006B200890B592BFD0B592B003220001610961076
:1006C200161196114130FD00EE30890B662BFD0BA1
:1006D200662B003201302000A0070030A13D462BDE
:1006E20020009712FA30890B742B200097162408E9
:1006F200023E8231442283315330890B7E2B00002B
:1007020020001812FA30890B842B200018162408B6
:10071200013E8231442283315330890B8E2B0000FB
:1007220020009812FA30890B942B20009816240886
:100732008231442283315330890B9D2B00002000EB
:100742009813FA30890BA32B200098172408033E34
:100752008231442283315330890BAD2B00000130AA
:100762002000A2070030A33D20002308803AFD00AC
:1007720080307D02031DBF2B0B302202031C712B24
:100782002000A201A3010130A4070030A53D2000F2
:100792002508803AFD0080307D02031DD22B0C30EB
:1007A2002402031CB52B20009817981618169716CA
:1007B20008002000A401A501A201A301372C2000FA
:1007C2009712FA30890BE32B200097162408023E79
:1007D2008131CE2183315330890BED2B0000200073
:1007E2001812FA30890BF32B200018162408013E48
:1007F2008131CE2183315330890BFD2B0000200043
:100802009812FA30890B032C2000981624088131A3
:10081200CE2183315330890B0C2C00002000981319
:10082200FA30890B122C200098172408033E8131DC
:10083200CE2183315330890B1C2C00000130200063
:10084200A2070030A33D20002308803AFD0080303B
:100852007D02031D2E2C0B302202031CE02B2000F4
:10086200A201A3010130A4070030A53D2508803A6A
:10087200FD0080307D02031D402C0C302402031C3D
:10088200242C2000A001A1012108803AFD00803023
:100892007D02031D4E2C033020020318702C200011
:1008A20016149614161596154130FD00EE30890B7C
:1008B200582CFD0B582C00322000161096101611E1
:1008C20096114130FD00EE30890B652CFD0B652C35
:1008D200003201302000A0070030A13D452C20004D
:1008E2009817981618169716080020002908031959
:1008F20008000A30F4000030F50004308E313E2644
:100902008431700E0F39F600710EF039F604710E53
:100912000F39F7008E31CE2684317408FC007C0832
:10092200FD000A30F4000030F50004308E313E261E
:100932008431700E0F39F600710EF039F604710E23
:100942000F39F7008E31FA2684317408FC007C08D6
:100952002000A00004308E313E268431700E0F3903
:100962002000A700710EF039A704710E0F39A800FC
:10097200181697127D088231BA228431FA30003279
:10098200890BC02C2000971620088231BA228431AC
:1009920020009716181220088231BA228431FA30C8
:1009A2000032890BD12C200018167D088231BA2220
:1009B200843120008C1A762C4130FC00EE30890BF9
:1009C200E02CFC0BE02C00320B2D21088600870165
:1009D2002708C03F2808C13F16141F2D2208860091
:1009E20087012708C03F2808C13F96141F2D2308FE
:1009F200860087012708C03F2808C13F16151F2D12
:100A02002408860087012708C03F2808C13F9615A1
:100A1200A9011F2D20002608003A0319112D1F2DB0
:100A22002508003A0319E62C013A0319EF2C033A80
:100A32000319F82C013A0319012D1F2D0130A507C6
:100A42000030A63D762C2000B001B1018E311C266B
:100A5200853120002D08031908000A30F400003007
:100A6200F50004308E313E268531700E0F39F600C6
:100A7200710EF039F604710E0F39F7008E31CE2661
:100A8200853174082000AE002E08B2000A30F4004E
:100A92000030F50004308E313E268531700E0F395C
:100AA200F600710EF039F604710E0F39F7008E312F
:100AB200FA26853174082000AE002E08A600043004
:100AC2008E313E26853170082000AE007108AF00DD
:100AD2000430AF36AE0C890B6A2D2E08AB002F08FE
:100AE200AC001816971232088231BA228531FA30D8
:100AF2000032890B792D2000971626088231BA22FE
:100B0200853120009716181226088231BA228531C3
:100B1200FA300032890B8A2D2000181632088231F1
:100B2200BA22853120008C1A2A2D41302000AE00D5
:100B3200EE30890B9A2DAE0B9A2D0000CC2D270892
:100B4200860087012B08C03F2C08C13F1614E02DF8
:100B52002808860087012B08C03F2C08C13F961445
:100B6200E02D2908860087012B08C03F2C08C13FD1
:100B72001615E02D2A08860087012B08C03F2C0895
:100B8200C13F96158331DA23853180314F2085317B
:100B92002000AD01E02D20003108003A0319D22DCA
:100BA200E02D3008003A0319A02D013A0319A92DAE
:100BB200033A0319B22D013A0319BB2DE02D01307E
:100BC200B0070030B13D2A2D003400340034003427
:100BD2000034003400340034003400340034003473
:100BE2000034003400340034003400340034003463
:100BF2000034003400340034013401340034013450
:100C0200003400340134013401340034013401343D
:100C1200013400340134003401340034003400342F
:100C2200013401340134013401340034003401341C
:100C3200013401340034013400340034003400340F
:100C420000340034003401340034013401340034FF
:100C520001340134013400340034013401340134EC
:100C620001340034003400340134013401340134DD
:100C720000340034003400340034003400340034D2
:100C820000340034003400340034003400340034C2
:100C920000340034003400340034003400340034B2
:100CA20000340034003400340034003400340034A2
:100CB2000034003400340034003400340034003492
:100CC2000034003400340034013400340134003480
:100CD200013401340034003401340134013401346C
:100CE200003401340134013401340134013400345C
:100CF2000034003400340034003400340034003452
:100D0200003401340134003401340034003401343D
:100D1200013401340034013401340134003401342B
:100D2200003401340034003400340134013401341D
:100D3200013401340034003401340134013400340C
:100D42000134003400340034003400340034003400
:100D520000340034003400340034003400340034F1
:100D62000034003400340034003400348E3126263E
:100D720086310A302000BA000030BB001430BC00BB
:100D82000030BD001E30BE000030BF002830C00061
:100D92000030C100C201C20AB901B90A98179816F7
:100DA2001816971217114E08B3003308A0004530E9
:100DB200B4003408A1004730B5003508A20049301C
:100DC200B6003608A3004B30B7003708A400003045
:100DD200A500A6005008A8004F08A700A901A90A6B
:100DE2006B2F3D084806031DF82E3C084706031DDD
:100DF200B72F3F084A06031D002F3E084906031D70
:100E0200B72F41084C06031D082F40084B06031D4F
:100E1200B72F8F31662786313F3020004F065004AE
:100E2200031D432F8C1A6F2F41302000B300EE3088
:100E3200890B192FB30B192F000083313F23863101
:100E420020004E08B3003308A6003A30B40034083C
:100E5200A7003C30B5003508A8003E30B600360881
:100E6200A9004030B7003708AA005008AC004F086C
:100E7200AB003908B8003808AD004D08853124258B
:100E82008631482F8C1A6F2F80314F2086318E3158
:100E92001C26863120004E08B3003308A0004530DE
:100EA200B4003408A1004730B5003508A20049302B
:100EB200B6003608A3004B30B7003708A400003054
:100EC200A500A6005008A8004F08A7004208B800D5
:100ED2003808A9004D088431762486310A30F4009E
:100EE2000030F50004308E313E268631700E0F3907
:100EF200F600710EF039F604710E0F39F7008E31DB
:100F0200CE26863174082000B3003308CD000A30A3
:100F1200F4000030F50004308E313E268631700E2A
:100F22000F39F600710EF039F604710E0F39F70021
:100F32008E31FA26863174082000B3003308CE00C1
:100F420004308E313E268631700E0F392000CF00DC
:100F5200710EF039CF04710E0F39D0003B084606EE
:100F6200031DB52F3A0845060319F22E8F31AA2721
:100F7200863120004D08031D6F2F4E08031D6F2F71
:100F82004F085004031D6F2F482FE5308400853031
:100F920085001E308600233087000030FF00D230EB
:100FA2008E3132268731903084008E308500513068
:100FB2008600003087000030FF001C308E31322660
:100FC20087312E3084008F308500A03086000030BB
:100FD20087000030FF0038308E31322687310930E9
:100FE2008400803085002030860001308700003088
:0E0FF200FF0046308E31322620008631B72EA9
:101C16002F0096019701980199019A019B010800EE
:101C2600623031008D008F019101023093009201E4
:101C36000800200098179816181697161610961072
:101C46001611961108008E310B268E318E31AC2678
:101C56008E318E3113268E318E315F260800FE00BE
:101C660012001E000130FE020030FF3B7F087E049A
:101C760003190034332EF300730821009E009317D6
:101C860013131314000021001318462E0D08F1003B
:101C96000C08F0000800F300F201731C562E7008C1
:101CA600F1007108F2070310F00D0310F30C73082E
:101CB600031D502E7208080022008E018F0190012C
:101CC6009101920193018D0121009E019B019401D6
:101CD6009501960197019A01990198018430930024
:101CE6009D010800F401F501701C7D2E7208F407B1
:101CF6007308F53D0130F235F30D890B7E2E013068
:101D0600F136F00C890B832E70087104031D772EB3
:101D16007508F1007408F00008000034003400343F
:101D26000134013401340034003400340134013408
:101D360001340034013400340034003401340134F9
:101D460000340134013400340134003401340134E8
:101D56000134200096011F3097004C309800F03077
:101D66009100C03092000330930003303E00CE0055
:101D7600C030C300D030B800E501C4012030B9003E
:101D8600CF01BA01C501D001FF30BB00FF30C6004C
:101D9600FF30D1000800740875040319F52EF90107
:101DA600F90AF51BE02E0130F435F50D890BD72E17
:101DB6000130F8007808F907D42E75087702031D5C
:101DC600E62E74087602031CEC2E7408F6027508DB
:101DD600F73B0130F536F40C890BED2E0130F90294
:101DE600031DE02E7708F5007608F4000800F901D7
:101DF600FA01740875040319292FFB01FB0AF51B68
:101E06000E2F0130F435F50D890B052F0130F80042
:101E16007808FB07022F0130F935FA0D890B0F2FD1
:101E260075087702031D192F74087602031C202FEC
:101E36007408F6027508F73B79140130F536F40C90
:101E4600890B212F0130FB02031D0E2F7A08F500A6
:101E56007908F400080000340134013401340134F7
:101E660000340134013400340034013401340134C7
:101E760001340034003401340034013400340134B8
:101E860000340134013401340034013401340034A7
:101E96000034013401340134003401340134013496
:101EA6000034003401340134013401340034003488
:101EB6000134013401340134003400340134003477
:101EC6000134003401342000981797120330813111
:101ED60008218F31FA300032890B6E2F20009716B9
:101EE6000230813108218F312000971618120230F6
:101EF600813108218F31FA300032890B7F2F200083
:101F060018160130813108218F31200018169812D9
:101F16000130813108218F31FA300032890B902F40
:101F2600200098160030813108218F312000981644
:101F360098130030813108218F31FA300032890B35
:101F4600A12F200098170330813108210800F901DC
:101F5600FA017A08803AF80080307802031DB52F1E
:101F6600643079020318080020009817971203308E
:101F76008031A5208F31FA300032890BBF2F200027
:101F8600971602308031A5208F312000971618123F
:101F960002308031A5208F31FA300032890BD02FE4
:101FA6002000181601308031A5208F312000181628
:101FB600981201308031A5208F31FA300032890B1A
:101FC600E12F2000981600308031A5208F312000A7
:101FD6009816981300308031A5208F31FA300032E0
:101FE600890BF22F2000981703308031A5208F31FE
:0A1FF6000130F9070030FA3DAC2F6E
:020000040001F9
:0A000E00EC3FFF3F9F3FFF3FFF3F25
:00000001FF
